{
  "_format": "hh-sol-artifact-1",
  "contractName": "UploadFile",
  "sourceName": "contracts/UploadFile.sol",
  "abi": [
    {
      "inputs": [
        {
          "internalType": "address",
          "name": "user",
          "type": "address"
        },
        {
          "internalType": "string",
          "name": "faceAuthID",
          "type": "string"
        }
      ],
      "name": "addFaceAuth",
      "outputs": [],
      "stateMutability": "nonpayable",
      "type": "function"
    },
    {
      "inputs": [
        {
          "internalType": "address",
          "name": "user",
          "type": "address"
        },
        {
          "internalType": "string",
          "name": "fileName",
          "type": "string"
        },
        {
          "internalType": "string",
          "name": "cid",
          "type": "string"
        },
        {
          "internalType": "string",
          "name": "encryptionKey",
          "type": "string"
        },
        {
          "internalType": "string",
          "name": "iv",
          "type": "string"
        }
      ],
      "name": "addFile",
      "outputs": [],
      "stateMutability": "nonpayable",
      "type": "function"
    },
    {
      "inputs": [
        {
          "internalType": "address",
          "name": "owner",
          "type": "address"
        },
        {
          "internalType": "string",
          "name": "cid",
          "type": "string"
        },
        {
          "internalType": "address",
          "name": "user",
          "type": "address"
        }
      ],
      "name": "allowAccess",
      "outputs": [],
      "stateMutability": "nonpayable",
      "type": "function"
    },
    {
      "inputs": [
        {
          "internalType": "address",
          "name": "owner",
          "type": "address"
        },
        {
          "internalType": "string",
          "name": "cid",
          "type": "string"
        },
        {
          "internalType": "address",
          "name": "user",
          "type": "address"
        }
      ],
      "name": "disallowAccess",
      "outputs": [],
      "stateMutability": "nonpayable",
      "type": "function"
    },
    {
      "inputs": [
        {
          "internalType": "address",
          "name": "user",
          "type": "address"
        }
      ],
      "name": "displayFiles",
      "outputs": [
        {
          "components": [
            {
              "internalType": "string",
              "name": "fileName",
              "type": "string"
            },
            {
              "internalType": "string",
              "name": "cid",
              "type": "string"
            },
            {
              "internalType": "string",
              "name": "encryptionKey",
              "type": "string"
            },
            {
              "internalType": "string",
              "name": "iv",
              "type": "string"
            }
          ],
          "internalType": "struct UploadFile.File[]",
          "name": "",
          "type": "tuple[]"
        }
      ],
      "stateMutability": "view",
      "type": "function"
    },
    {
      "inputs": [
        {
          "internalType": "address",
          "name": "user",
          "type": "address"
        },
        {
          "internalType": "string",
          "name": "cidToRemove",
          "type": "string"
        }
      ],
      "name": "removeFile",
      "outputs": [],
      "stateMutability": "nonpayable",
      "type": "function"
    },
    {
      "inputs": [
        {
          "internalType": "address",
          "name": "owner",
          "type": "address"
        },
        {
          "internalType": "string",
          "name": "cid",
          "type": "string"
        }
      ],
      "name": "shareAccessList",
      "outputs": [
        {
          "internalType": "address[]",
          "name": "",
          "type": "address[]"
        }
      ],
      "stateMutability": "view",
      "type": "function"
    },
    {
      "inputs": [
        {
          "internalType": "address",
          "name": "caller",
          "type": "address"
        }
      ],
      "name": "sharedWithMe",
      "outputs": [
        {
          "components": [
            {
              "internalType": "string",
              "name": "fileName",
              "type": "string"
            },
            {
              "internalType": "string",
              "name": "cid",
              "type": "string"
            },
            {
              "internalType": "string",
              "name": "encryptionKey",
              "type": "string"
            },
            {
              "internalType": "string",
              "name": "iv",
              "type": "string"
            }
          ],
          "internalType": "struct UploadFile.File[]",
          "name": "",
          "type": "tuple[]"
        }
      ],
      "stateMutability": "view",
      "type": "function"
    },
    {
      "inputs": [
        {
          "internalType": "address",
          "name": "user",
          "type": "address"
        },
        {
          "internalType": "string",
          "name": "faceAuthID",
          "type": "string"
        }
      ],
      "name": "verifyFaceAuth",
      "outputs": [
        {
          "internalType": "bool",
          "name": "",
          "type": "bool"
        }
      ],
      "stateMutability": "view",
      "type": "function"
    }
  ],
  "bytecode": "0x608060405234801561001057600080fd5b50612dd3806100206000396000f3fe608060405234801561001057600080fd5b50600436106100935760003560e01c80637a885e4d116100665780637a885e4d146101305780639ec407cb1461014c578063d83542b21461017c578063e9eeedc814610198578063fb97c1a8146101b457610093565b80630a9c1871146100985780633908c7f5146100b45780635cda80d8146100d057806379ed85ef14610100575b600080fd5b6100b260048036038101906100ad919061264d565b6101e4565b005b6100ce60048036038101906100c991906126a9565b610512565b005b6100ea60048036038101906100e59190612794565b610618565b6040516100f79190612983565b60405180910390f35b61011a6004803603810190610115919061264d565b610eaa565b60405161012791906129c0565b60405180910390f35b61014a600480360381019061014591906129db565b610f40565b005b6101666004803603810190610161919061264d565b611581565b6040516101739190612b08565b60405180910390f35b6101966004803603810190610191919061264d565b61166b565b005b6101b260048036038101906101ad91906129db565b6116c2565b005b6101ce60048036038101906101c99190612794565b612017565b6040516101db9190612983565b60405180910390f35b6000600160008473ffffffffffffffffffffffffffffffffffffffff1673ffffffffffffffffffffffffffffffffffffffff16815260200190815260200160002080549050905060005b8181101561050c57826040516020016102479190612b66565b60405160208183030381529060405280519060200120600160008673ffffffffffffffffffffffffffffffffffffffff1673ffffffffffffffffffffffffffffffffffffffff16815260200190815260200160002082815481106102ae576102ad612b7d565b5b90600052602060002090600402016001016040516020016102cf9190612ca1565b6040516020818303038152906040528051906020012014156104f9576001826102f89190612cf1565b811461044c57600160008573ffffffffffffffffffffffffffffffffffffffff1673ffffffffffffffffffffffffffffffffffffffff16815260200190815260200160002060018361034a9190612cf1565b8154811061035b5761035a612b7d565b5b9060005260206000209060040201600160008673ffffffffffffffffffffffffffffffffffffffff1673ffffffffffffffffffffffffffffffffffffffff16815260200190815260200160002082815481106103ba576103b9612b7d565b5b906000526020600020906004020160008201816000019080546103dc90612bdb565b6103e79291906122fd565b5060018201816001019080546103fc90612bdb565b6104079291906122fd565b50600282018160020190805461041c90612bdb565b6104279291906122fd565b50600382018160030190805461043c90612bdb565b6104479291906122fd565b509050505b600160008573ffffffffffffffffffffffffffffffffffffffff1673ffffffffffffffffffffffffffffffffffffffff16815260200190815260200160002080548061049b5761049a612d25565b5b6001900381819060005260206000209060040201600080820160006104c0919061238a565b6001820160006104d0919061238a565b6002820160006104e0919061238a565b6003820160006104f0919061238a565b5050905561050c565b808061050490612d54565b91505061022e565b50505050565b600160008673ffffffffffffffffffffffffffffffffffffffff1673ffffffffffffffffffffffffffffffffffffffff168152602001908152602001600020604051806080016040528086815260200185815260200184815260200183815250908060018154018082558091505060019003906000526020600020906004020160009091909190915060008201518160000190805190602001906105b79291906123ca565b5060208201518160010190805190602001906105d49291906123ca565b5060408201518160020190805190602001906105f19291906123ca565b50606082015181600301908051906020019061060e9291906123ca565b5050505050505050565b60606000805b600460008573ffffffffffffffffffffffffffffffffffffffff1673ffffffffffffffffffffffffffffffffffffffff168152602001908152602001600020805490508110156106ff57600460008573ffffffffffffffffffffffffffffffffffffffff1673ffffffffffffffffffffffffffffffffffffffff16815260200190815260200160002081815481106106b9576106b8612b7d565b5b906000526020600020906003020160020160009054906101000a900460ff16156106ec5781806106e890612d54565b9250505b80806106f790612d54565b91505061061e565b5060008167ffffffffffffffff81111561071c5761071b612522565b5b60405190808252806020026020018201604052801561075557816020015b610742612450565b81526020019060019003908161073a5790505b5090506000805b600460008773ffffffffffffffffffffffffffffffffffffffff1673ffffffffffffffffffffffffffffffffffffffff16815260200190815260200160002080549050811015610e9e57600460008773ffffffffffffffffffffffffffffffffffffffff1673ffffffffffffffffffffffffffffffffffffffff16815260200190815260200160002081815481106107f7576107f6612b7d565b5b906000526020600020906003020160020160009054906101000a900460ff1615610e8b576000600460008873ffffffffffffffffffffffffffffffffffffffff1673ffffffffffffffffffffffffffffffffffffffff168152602001908152602001600020828154811061086e5761086d612b7d565b5b9060005260206000209060030201600101805461088a90612bdb565b80601f01602080910402602001604051908101604052809291908181526020018280546108b690612bdb565b80156109035780601f106108d857610100808354040283529160200191610903565b820191906000526020600020905b8154815290600101906020018083116108e657829003601f168201915b5050505050905060005b60016000600460008b73ffffffffffffffffffffffffffffffffffffffff1673ffffffffffffffffffffffffffffffffffffffff168152602001908152602001600020858154811061096257610961612b7d565b5b906000526020600020906003020160000160009054906101000a900473ffffffffffffffffffffffffffffffffffffffff1673ffffffffffffffffffffffffffffffffffffffff1673ffffffffffffffffffffffffffffffffffffffff16815260200190815260200160002080549050811015610e8857816040516020016109ea9190612b66565b6040516020818303038152906040528051906020012060016000600460008c73ffffffffffffffffffffffffffffffffffffffff1673ffffffffffffffffffffffffffffffffffffffff1681526020019081526020016000208681548110610a5557610a54612b7d565b5b906000526020600020906003020160000160009054906101000a900473ffffffffffffffffffffffffffffffffffffffff1673ffffffffffffffffffffffffffffffffffffffff1673ffffffffffffffffffffffffffffffffffffffff1681526020019081526020016000208281548110610ad357610ad2612b7d565b5b9060005260206000209060040201600101604051602001610af49190612ca1565b604051602081830303815290604052805190602001201415610e755760016000600460008b73ffffffffffffffffffffffffffffffffffffffff1673ffffffffffffffffffffffffffffffffffffffff1681526020019081526020016000208581548110610b6557610b64612b7d565b5b906000526020600020906003020160000160009054906101000a900473ffffffffffffffffffffffffffffffffffffffff1673ffffffffffffffffffffffffffffffffffffffff1673ffffffffffffffffffffffffffffffffffffffff1681526020019081526020016000208181548110610be357610be2612b7d565b5b9060005260206000209060040201604051806080016040529081600082018054610c0c90612bdb565b80601f0160208091040260200160405190810160405280929190818152602001828054610c3890612bdb565b8015610c855780601f10610c5a57610100808354040283529160200191610c85565b820191906000526020600020905b815481529060010190602001808311610c6857829003601f168201915b50505050508152602001600182018054610c9e90612bdb565b80601f0160208091040260200160405190810160405280929190818152602001828054610cca90612bdb565b8015610d175780601f10610cec57610100808354040283529160200191610d17565b820191906000526020600020905b815481529060010190602001808311610cfa57829003601f168201915b50505050508152602001600282018054610d3090612bdb565b80601f0160208091040260200160405190810160405280929190818152602001828054610d5c90612bdb565b8015610da95780601f10610d7e57610100808354040283529160200191610da9565b820191906000526020600020905b815481529060010190602001808311610d8c57829003601f168201915b50505050508152602001600382018054610dc290612bdb565b80601f0160208091040260200160405190810160405280929190818152602001828054610dee90612bdb565b8015610e3b5780601f10610e1057610100808354040283529160200191610e3b565b820191906000526020600020905b815481529060010190602001808311610e1e57829003601f168201915b505050505081525050858581518110610e5757610e56612b7d565b5b60200260200101819052508380610e6d90612d54565b945050610e88565b8080610e8090612d54565b91505061090d565b50505b8080610e9690612d54565b91505061075c565b50819350505050919050565b600081604051602001610ebd9190612b66565b604051602081830303815290604052805190602001206000808573ffffffffffffffffffffffffffffffffffffffff1673ffffffffffffffffffffffffffffffffffffffff168152602001908152602001600020604051602001610f219190612ca1565b6040516020818303038152906040528051906020012014905092915050565b6001600260008573ffffffffffffffffffffffffffffffffffffffff1673ffffffffffffffffffffffffffffffffffffffff16815260200190815260200160002083604051610f8f9190612b66565b908152602001604051809103902060008373ffffffffffffffffffffffffffffffffffffffff1673ffffffffffffffffffffffffffffffffffffffff16815260200190815260200160002060006101000a81548160ff021916908315150217905550600560008273ffffffffffffffffffffffffffffffffffffffff1673ffffffffffffffffffffffffffffffffffffffff16815260200190815260200160002060008473ffffffffffffffffffffffffffffffffffffffff1673ffffffffffffffffffffffffffffffffffffffff1681526020019081526020016000208260405161107b9190612b66565b908152602001604051809103902060009054906101000a900460ff16156112ec5760005b600460008373ffffffffffffffffffffffffffffffffffffffff1673ffffffffffffffffffffffffffffffffffffffff168152602001908152602001600020805490508110156112e6578373ffffffffffffffffffffffffffffffffffffffff16600460008473ffffffffffffffffffffffffffffffffffffffff1673ffffffffffffffffffffffffffffffffffffffff168152602001908152602001600020828154811061115157611150612b7d565b5b906000526020600020906003020160000160009054906101000a900473ffffffffffffffffffffffffffffffffffffffff1673ffffffffffffffffffffffffffffffffffffffff161480156112525750826040516020016111b29190612b66565b60405160208183030381529060405280519060200120600460008473ffffffffffffffffffffffffffffffffffffffff1673ffffffffffffffffffffffffffffffffffffffff168152602001908152602001600020828154811061121957611218612b7d565b5b906000526020600020906003020160010160405160200161123a9190612ca1565b60405160208183030381529060405280519060200120145b156112d3576001600460008473ffffffffffffffffffffffffffffffffffffffff1673ffffffffffffffffffffffffffffffffffffffff16815260200190815260200160002082815481106112aa576112a9612b7d565b5b906000526020600020906003020160020160006101000a81548160ff0219169083151502179055505b80806112de90612d54565b91505061109f565b5061157c565b600360008473ffffffffffffffffffffffffffffffffffffffff1673ffffffffffffffffffffffffffffffffffffffff168152602001908152602001600020826040516113399190612b66565b9081526020016040518091039020819080600181540180825580915050600190039060005260206000200160009091909190916101000a81548173ffffffffffffffffffffffffffffffffffffffff021916908373ffffffffffffffffffffffffffffffffffffffff160217905550600460008273ffffffffffffffffffffffffffffffffffffffff1673ffffffffffffffffffffffffffffffffffffffff16815260200190815260200160002060405180606001604052808573ffffffffffffffffffffffffffffffffffffffff16815260200184815260200160011515815250908060018154018082558091505060019003906000526020600020906003020160009091909190915060008201518160000160006101000a81548173ffffffffffffffffffffffffffffffffffffffff021916908373ffffffffffffffffffffffffffffffffffffffff16021790555060208201518160010190805190602001906114a79291906123ca565b5060408201518160020160006101000a81548160ff02191690831515021790555050506001600560008373ffffffffffffffffffffffffffffffffffffffff1673ffffffffffffffffffffffffffffffffffffffff16815260200190815260200160002060008573ffffffffffffffffffffffffffffffffffffffff1673ffffffffffffffffffffffffffffffffffffffff168152602001908152602001600020836040516115569190612b66565b908152602001604051809103902060006101000a81548160ff0219169083151502179055505b505050565b6060600360008473ffffffffffffffffffffffffffffffffffffffff1673ffffffffffffffffffffffffffffffffffffffff168152602001908152602001600020826040516115d09190612b66565b908152602001604051809103902080548060200260200160405190810160405280929190818152602001828054801561165e57602002820191906000526020600020905b8160009054906101000a900473ffffffffffffffffffffffffffffffffffffffff1673ffffffffffffffffffffffffffffffffffffffff1681526020019060010190808311611614575b5050505050905092915050565b806000808473ffffffffffffffffffffffffffffffffffffffff1673ffffffffffffffffffffffffffffffffffffffff16815260200190815260200160002090805190602001906116bd9291906123ca565b505050565b6000600260008573ffffffffffffffffffffffffffffffffffffffff1673ffffffffffffffffffffffffffffffffffffffff168152602001908152602001600020836040516117119190612b66565b908152602001604051809103902060008373ffffffffffffffffffffffffffffffffffffffff1673ffffffffffffffffffffffffffffffffffffffff16815260200190815260200160002060006101000a81548160ff02191690831515021790555060005b600360008573ffffffffffffffffffffffffffffffffffffffff1673ffffffffffffffffffffffffffffffffffffffff168152602001908152602001600020836040516117c39190612b66565b908152602001604051809103902080549050811015611b16578173ffffffffffffffffffffffffffffffffffffffff16600360008673ffffffffffffffffffffffffffffffffffffffff1673ffffffffffffffffffffffffffffffffffffffff168152602001908152602001600020846040516118409190612b66565b908152602001604051809103902082815481106118605761185f612b7d565b5b9060005260206000200160009054906101000a900473ffffffffffffffffffffffffffffffffffffffff1673ffffffffffffffffffffffffffffffffffffffff161415611b0357600360008573ffffffffffffffffffffffffffffffffffffffff1673ffffffffffffffffffffffffffffffffffffffff168152602001908152602001600020836040516118f49190612b66565b90815260200160405180910390206001600360008773ffffffffffffffffffffffffffffffffffffffff1673ffffffffffffffffffffffffffffffffffffffff168152602001908152602001600020856040516119519190612b66565b90815260200160405180910390208054905061196d9190612cf1565b8154811061197e5761197d612b7d565b5b9060005260206000200160009054906101000a900473ffffffffffffffffffffffffffffffffffffffff16600360008673ffffffffffffffffffffffffffffffffffffffff1673ffffffffffffffffffffffffffffffffffffffff168152602001908152602001600020846040516119f69190612b66565b90815260200160405180910390208281548110611a1657611a15612b7d565b5b9060005260206000200160006101000a81548173ffffffffffffffffffffffffffffffffffffffff021916908373ffffffffffffffffffffffffffffffffffffffff160217905550600360008573ffffffffffffffffffffffffffffffffffffffff1673ffffffffffffffffffffffffffffffffffffffff16815260200190815260200160002083604051611aab9190612b66565b9081526020016040518091039020805480611ac957611ac8612d25565b5b6001900381819060005260206000200160006101000a81549073ffffffffffffffffffffffffffffffffffffffff02191690559055611b16565b8080611b0e90612d54565b915050611776565b5060005b600460008373ffffffffffffffffffffffffffffffffffffffff1673ffffffffffffffffffffffffffffffffffffffff16815260200190815260200160002080549050811015611f60578373ffffffffffffffffffffffffffffffffffffffff16600460008473ffffffffffffffffffffffffffffffffffffffff1673ffffffffffffffffffffffffffffffffffffffff1681526020019081526020016000208281548110611bcc57611bcb612b7d565b5b906000526020600020906003020160000160009054906101000a900473ffffffffffffffffffffffffffffffffffffffff1673ffffffffffffffffffffffffffffffffffffffff16148015611ccd575082604051602001611c2d9190612b66565b60405160208183030381529060405280519060200120600460008473ffffffffffffffffffffffffffffffffffffffff1673ffffffffffffffffffffffffffffffffffffffff1681526020019081526020016000208281548110611c9457611c93612b7d565b5b9060005260206000209060030201600101604051602001611cb59190612ca1565b60405160208183030381529060405280519060200120145b15611f4d57600460008373ffffffffffffffffffffffffffffffffffffffff1673ffffffffffffffffffffffffffffffffffffffff1681526020019081526020016000206001600460008573ffffffffffffffffffffffffffffffffffffffff1673ffffffffffffffffffffffffffffffffffffffff16815260200190815260200160002080549050611d609190612cf1565b81548110611d7157611d70612b7d565b5b9060005260206000209060030201600460008473ffffffffffffffffffffffffffffffffffffffff1673ffffffffffffffffffffffffffffffffffffffff1681526020019081526020016000208281548110611dd057611dcf612b7d565b5b90600052602060002090600302016000820160009054906101000a900473ffffffffffffffffffffffffffffffffffffffff168160000160006101000a81548173ffffffffffffffffffffffffffffffffffffffff021916908373ffffffffffffffffffffffffffffffffffffffff1602179055506001820181600101908054611e5990612bdb565b611e649291906122fd565b506002820160009054906101000a900460ff168160020160006101000a81548160ff021916908315150217905550905050600460008373ffffffffffffffffffffffffffffffffffffffff1673ffffffffffffffffffffffffffffffffffffffff168152602001908152602001600020805480611ee457611ee3612d25565b5b6001900381819060005260206000209060030201600080820160006101000a81549073ffffffffffffffffffffffffffffffffffffffff0219169055600182016000611f30919061238a565b6002820160006101000a81549060ff021916905550509055611f60565b8080611f5890612d54565b915050611b1a565b506000600560008373ffffffffffffffffffffffffffffffffffffffff1673ffffffffffffffffffffffffffffffffffffffff16815260200190815260200160002060008573ffffffffffffffffffffffffffffffffffffffff1673ffffffffffffffffffffffffffffffffffffffff16815260200190815260200160002083604051611fed9190612b66565b908152602001604051809103902060006101000a81548160ff021916908315150217905550505050565b6060600160008373ffffffffffffffffffffffffffffffffffffffff1673ffffffffffffffffffffffffffffffffffffffff168152602001908152602001600020805480602002602001604051908101604052809291908181526020016000905b828210156122f257838290600052602060002090600402016040518060800160405290816000820180546120ab90612bdb565b80601f01602080910402602001604051908101604052809291908181526020018280546120d790612bdb565b80156121245780601f106120f957610100808354040283529160200191612124565b820191906000526020600020905b81548152906001019060200180831161210757829003601f168201915b5050505050815260200160018201805461213d90612bdb565b80601f016020809104026020016040519081016040528092919081815260200182805461216990612bdb565b80156121b65780601f1061218b576101008083540402835291602001916121b6565b820191906000526020600020905b81548152906001019060200180831161219957829003601f168201915b505050505081526020016002820180546121cf90612bdb565b80601f01602080910402602001604051908101604052809291908181526020018280546121fb90612bdb565b80156122485780601f1061221d57610100808354040283529160200191612248565b820191906000526020600020905b81548152906001019060200180831161222b57829003601f168201915b5050505050815260200160038201805461226190612bdb565b80601f016020809104026020016040519081016040528092919081815260200182805461228d90612bdb565b80156122da5780601f106122af576101008083540402835291602001916122da565b820191906000526020600020905b8154815290600101906020018083116122bd57829003601f168201915b50505050508152505081526020019060010190612078565b505050509050919050565b82805461230990612bdb565b90600052602060002090601f01602090048101928261232b5760008555612379565b82601f1061233c5780548555612379565b8280016001018555821561237957600052602060002091601f016020900482015b8281111561237857825482559160010191906001019061235d565b5b5090506123869190612478565b5090565b50805461239690612bdb565b6000825580601f106123a857506123c7565b601f0160209004906000526020600020908101906123c69190612478565b5b50565b8280546123d690612bdb565b90600052602060002090601f0160209004810192826123f8576000855561243f565b82601f1061241157805160ff191683800117855561243f565b8280016001018555821561243f579182015b8281111561243e578251825591602001919060010190612423565b5b50905061244c9190612478565b5090565b6040518060800160405280606081526020016060815260200160608152602001606081525090565b5b80821115612491576000816000905550600101612479565b5090565b6000604051905090565b600080fd5b600080fd5b600073ffffffffffffffffffffffffffffffffffffffff82169050919050565b60006124d4826124a9565b9050919050565b6124e4816124c9565b81146124ef57600080fd5b50565b600081359050612501816124db565b92915050565b600080fd5b600080fd5b6000601f19601f8301169050919050565b7f4e487b7100000000000000000000000000000000000000000000000000000000600052604160045260246000fd5b61255a82612511565b810181811067ffffffffffffffff8211171561257957612578612522565b5b80604052505050565b600061258c612495565b90506125988282612551565b919050565b600067ffffffffffffffff8211156125b8576125b7612522565b5b6125c182612511565b9050602081019050919050565b82818337600083830152505050565b60006125f06125eb8461259d565b612582565b90508281526020810184848401111561260c5761260b61250c565b5b6126178482856125ce565b509392505050565b600082601f83011261263457612633612507565b5b81356126448482602086016125dd565b91505092915050565b600080604083850312156126645761266361249f565b5b6000612672858286016124f2565b925050602083013567ffffffffffffffff811115612693576126926124a4565b5b61269f8582860161261f565b9150509250929050565b600080600080600060a086880312156126c5576126c461249f565b5b60006126d3888289016124f2565b955050602086013567ffffffffffffffff8111156126f4576126f36124a4565b5b6127008882890161261f565b945050604086013567ffffffffffffffff811115612721576127206124a4565b5b61272d8882890161261f565b935050606086013567ffffffffffffffff81111561274e5761274d6124a4565b5b61275a8882890161261f565b925050608086013567ffffffffffffffff81111561277b5761277a6124a4565b5b6127878882890161261f565b9150509295509295909350565b6000602082840312156127aa576127a961249f565b5b60006127b8848285016124f2565b91505092915050565b600081519050919050565b600082825260208201905092915050565b6000819050602082019050919050565b600081519050919050565b600082825260208201905092915050565b60005b8381101561282757808201518184015260208101905061280c565b83811115612836576000848401525b50505050565b6000612847826127ed565b61285181856127f8565b9350612861818560208601612809565b61286a81612511565b840191505092915050565b60006080830160008301518482036000860152612892828261283c565b915050602083015184820360208601526128ac828261283c565b915050604083015184820360408601526128c6828261283c565b915050606083015184820360608601526128e0828261283c565b9150508091505092915050565b60006128f98383612875565b905092915050565b6000602082019050919050565b6000612919826127c1565b61292381856127cc565b935083602082028501612935856127dd565b8060005b85811015612971578484038952815161295285826128ed565b945061295d83612901565b925060208a01995050600181019050612939565b50829750879550505050505092915050565b6000602082019050818103600083015261299d818461290e565b905092915050565b60008115159050919050565b6129ba816129a5565b82525050565b60006020820190506129d560008301846129b1565b92915050565b6000806000606084860312156129f4576129f361249f565b5b6000612a02868287016124f2565b935050602084013567ffffffffffffffff811115612a2357612a226124a4565b5b612a2f8682870161261f565b9250506040612a40868287016124f2565b9150509250925092565b600081519050919050565b600082825260208201905092915050565b6000819050602082019050919050565b612a7f816124c9565b82525050565b6000612a918383612a76565b60208301905092915050565b6000602082019050919050565b6000612ab582612a4a565b612abf8185612a55565b9350612aca83612a66565b8060005b83811015612afb578151612ae28882612a85565b9750612aed83612a9d565b925050600181019050612ace565b5085935050505092915050565b60006020820190508181036000830152612b228184612aaa565b905092915050565b600081905092915050565b6000612b40826127ed565b612b4a8185612b2a565b9350612b5a818560208601612809565b80840191505092915050565b6000612b728284612b35565b915081905092915050565b7f4e487b7100000000000000000000000000000000000000000000000000000000600052603260045260246000fd5b7f4e487b7100000000000000000000000000000000000000000000000000000000600052602260045260246000fd5b60006002820490506001821680612bf357607f821691505b60208210811415612c0757612c06612bac565b5b50919050565b60008190508160005260206000209050919050565b60008154612c2f81612bdb565b612c398186612b2a565b94506001821660008114612c545760018114612c6557612c98565b60ff19831686528186019350612c98565b612c6e85612c0d565b60005b83811015612c9057815481890152600182019150602081019050612c71565b838801955050505b50505092915050565b6000612cad8284612c22565b915081905092915050565b6000819050919050565b7f4e487b7100000000000000000000000000000000000000000000000000000000600052601160045260246000fd5b6000612cfc82612cb8565b9150612d0783612cb8565b925082821015612d1a57612d19612cc2565b5b828203905092915050565b7f4e487b7100000000000000000000000000000000000000000000000000000000600052603160045260246000fd5b6000612d5f82612cb8565b91507fffffffffffffffffffffffffffffffffffffffffffffffffffffffffffffffff821415612d9257612d91612cc2565b5b60018201905091905056fea264697066735822122031f013d098aeee3270932deeb335da476b67a0151537bfdd52ea7437b6f1a0f264736f6c63430008090033",
  "linkReferences": {},
  "deployedLinkReferences": {}
}