{
  "_format": "hh-sol-artifact-1",
  "contractName": "UploadFile",
  "sourceName": "contracts/UploadFile.sol",
  "abi": [
    {
      "inputs": [
        {
          "internalType": "address",
          "name": "user",
          "type": "address"
        },
        {
          "internalType": "string",
          "name": "url",
          "type": "string"
        }
      ],
      "name": "addFile",
      "outputs": [],
      "stateMutability": "nonpayable",
      "type": "function"
    },
    {
      "inputs": [
        {
          "internalType": "address",
          "name": "owner",
          "type": "address"
        },
        {
          "internalType": "string",
          "name": "url",
          "type": "string"
        },
        {
          "internalType": "address",
          "name": "user",
          "type": "address"
        }
      ],
      "name": "allowAccess",
      "outputs": [],
      "stateMutability": "nonpayable",
      "type": "function"
    },
    {
      "inputs": [
        {
          "internalType": "address",
          "name": "owner",
          "type": "address"
        },
        {
          "internalType": "string",
          "name": "url",
          "type": "string"
        },
        {
          "internalType": "address",
          "name": "user",
          "type": "address"
        }
      ],
      "name": "disallowAccess",
      "outputs": [],
      "stateMutability": "nonpayable",
      "type": "function"
    },
    {
      "inputs": [
        {
          "internalType": "address",
          "name": "user",
          "type": "address"
        }
      ],
      "name": "displayFiles",
      "outputs": [
        {
          "internalType": "string[]",
          "name": "",
          "type": "string[]"
        }
      ],
      "stateMutability": "view",
      "type": "function"
    },
    {
      "inputs": [
        {
          "internalType": "address",
          "name": "user",
          "type": "address"
        },
        {
          "internalType": "string",
          "name": "urlToRemove",
          "type": "string"
        }
      ],
      "name": "removeFile",
      "outputs": [],
      "stateMutability": "nonpayable",
      "type": "function"
    },
    {
      "inputs": [
        {
          "internalType": "address",
          "name": "owner",
          "type": "address"
        },
        {
          "internalType": "string",
          "name": "url",
          "type": "string"
        }
      ],
      "name": "shareAccessList",
      "outputs": [
        {
          "internalType": "address[]",
          "name": "",
          "type": "address[]"
        }
      ],
      "stateMutability": "view",
      "type": "function"
    },
    {
      "inputs": [
        {
          "internalType": "address",
          "name": "caller",
          "type": "address"
        }
      ],
      "name": "sharedWithMe",
      "outputs": [
        {
          "internalType": "string[]",
          "name": "",
          "type": "string[]"
        }
      ],
      "stateMutability": "view",
      "type": "function"
    }
  ],
  "bytecode": "0x608060405234801561001057600080fd5b50611bfd806100206000396000f3fe608060405234801561001057600080fd5b506004361061007d5760003560e01c806380bd5e531161005b57806380bd5e53146100ea5780639ec407cb14610106578063e9eeedc814610136578063fb97c1a8146101525761007d565b80630a9c1871146100825780635cda80d81461009e5780637a885e4d146100ce575b600080fd5b61009c60048036038101906100979190611610565b610182565b005b6100b860048036038101906100b3919061166c565b6103f6565b6040516100c591906117e3565b60405180910390f35b6100e860048036038101906100e39190611805565b61072a565b005b61010460048036038101906100ff9190611610565b610d6a565b005b610120600480360381019061011b9190611610565b610de6565b60405161012d9190611932565b60405180910390f35b610150600480360381019061014b9190611805565b610ed0565b005b61016c6004803603810190610167919061166c565b6111d1565b60405161017991906117e3565b60405180910390f35b60008060008473ffffffffffffffffffffffffffffffffffffffff1673ffffffffffffffffffffffffffffffffffffffff16815260200190815260200160002080549050905060005b818110156103f057826040516020016101e49190611990565b604051602081830303815290604052805190602001206000808673ffffffffffffffffffffffffffffffffffffffff1673ffffffffffffffffffffffffffffffffffffffff168152602001908152602001600020828154811061024a576102496119a7565b5b906000526020600020016040516020016102649190611acb565b6040516020818303038152906040528051906020012014156103dd5760018261028d9190611b1b565b811461036c576000808573ffffffffffffffffffffffffffffffffffffffff1673ffffffffffffffffffffffffffffffffffffffff1681526020019081526020016000206001836102de9190611b1b565b815481106102ef576102ee6119a7565b5b906000526020600020016000808673ffffffffffffffffffffffffffffffffffffffff1673ffffffffffffffffffffffffffffffffffffffff1681526020019081526020016000208281548110610349576103486119a7565b5b9060005260206000200190805461035f90611a05565b61036a9291906112e8565b505b6000808573ffffffffffffffffffffffffffffffffffffffff1673ffffffffffffffffffffffffffffffffffffffff1681526020019081526020016000208054806103ba576103b9611b4f565b5b6001900381819060005260206000200160006103d69190611375565b90556103f0565b80806103e890611b7e565b9150506101cb565b50505050565b60606000805b600360008573ffffffffffffffffffffffffffffffffffffffff1673ffffffffffffffffffffffffffffffffffffffff168152602001908152602001600020805490508110156104dd57600360008573ffffffffffffffffffffffffffffffffffffffff1673ffffffffffffffffffffffffffffffffffffffff1681526020019081526020016000208181548110610497576104966119a7565b5b906000526020600020906003020160020160009054906101000a900460ff16156104ca5781806104c690611b7e565b9250505b80806104d590611b7e565b9150506103fc565b5060008167ffffffffffffffff8111156104fa576104f96114e5565b5b60405190808252806020026020018201604052801561052d57816020015b60608152602001906001900390816105185790505b5090506000805b600360008773ffffffffffffffffffffffffffffffffffffffff1673ffffffffffffffffffffffffffffffffffffffff1681526020019081526020016000208054905081101561071e57600360008773ffffffffffffffffffffffffffffffffffffffff1673ffffffffffffffffffffffffffffffffffffffff16815260200190815260200160002081815481106105cf576105ce6119a7565b5b906000526020600020906003020160020160009054906101000a900460ff161561070b57600360008773ffffffffffffffffffffffffffffffffffffffff1673ffffffffffffffffffffffffffffffffffffffff1681526020019081526020016000208181548110610644576106436119a7565b5b9060005260206000209060030201600101805461066090611a05565b80601f016020809104026020016040519081016040528092919081815260200182805461068c90611a05565b80156106d95780601f106106ae576101008083540402835291602001916106d9565b820191906000526020600020905b8154815290600101906020018083116106bc57829003601f168201915b50505050508383815181106106f1576106f06119a7565b5b6020026020010181905250818061070790611b7e565b9250505b808061071690611b7e565b915050610534565b50819350505050919050565b60018060008573ffffffffffffffffffffffffffffffffffffffff1673ffffffffffffffffffffffffffffffffffffffff168152602001908152602001600020836040516107789190611990565b908152602001604051809103902060008373ffffffffffffffffffffffffffffffffffffffff1673ffffffffffffffffffffffffffffffffffffffff16815260200190815260200160002060006101000a81548160ff021916908315150217905550600460008273ffffffffffffffffffffffffffffffffffffffff1673ffffffffffffffffffffffffffffffffffffffff16815260200190815260200160002060008473ffffffffffffffffffffffffffffffffffffffff1673ffffffffffffffffffffffffffffffffffffffff168152602001908152602001600020826040516108649190611990565b908152602001604051809103902060009054906101000a900460ff1615610ad55760005b600360008373ffffffffffffffffffffffffffffffffffffffff1673ffffffffffffffffffffffffffffffffffffffff16815260200190815260200160002080549050811015610acf578173ffffffffffffffffffffffffffffffffffffffff16600360008473ffffffffffffffffffffffffffffffffffffffff1673ffffffffffffffffffffffffffffffffffffffff168152602001908152602001600020828154811061093a576109396119a7565b5b906000526020600020906003020160000160009054906101000a900473ffffffffffffffffffffffffffffffffffffffff1673ffffffffffffffffffffffffffffffffffffffff16148015610a3b57508260405160200161099b9190611990565b60405160208183030381529060405280519060200120600360008473ffffffffffffffffffffffffffffffffffffffff1673ffffffffffffffffffffffffffffffffffffffff1681526020019081526020016000208281548110610a0257610a016119a7565b5b9060005260206000209060030201600101604051602001610a239190611acb565b60405160208183030381529060405280519060200120145b15610abc576001600360008473ffffffffffffffffffffffffffffffffffffffff1673ffffffffffffffffffffffffffffffffffffffff1681526020019081526020016000208281548110610a9357610a926119a7565b5b906000526020600020906003020160020160006101000a81548160ff0219169083151502179055505b8080610ac790611b7e565b915050610888565b50610d65565b600260008473ffffffffffffffffffffffffffffffffffffffff1673ffffffffffffffffffffffffffffffffffffffff16815260200190815260200160002082604051610b229190611990565b9081526020016040518091039020819080600181540180825580915050600190039060005260206000200160009091909190916101000a81548173ffffffffffffffffffffffffffffffffffffffff021916908373ffffffffffffffffffffffffffffffffffffffff160217905550600360008273ffffffffffffffffffffffffffffffffffffffff1673ffffffffffffffffffffffffffffffffffffffff16815260200190815260200160002060405180606001604052808573ffffffffffffffffffffffffffffffffffffffff16815260200184815260200160011515815250908060018154018082558091505060019003906000526020600020906003020160009091909190915060008201518160000160006101000a81548173ffffffffffffffffffffffffffffffffffffffff021916908373ffffffffffffffffffffffffffffffffffffffff1602179055506020820151816001019080519060200190610c909291906113b5565b5060408201518160020160006101000a81548160ff02191690831515021790555050506001600460008373ffffffffffffffffffffffffffffffffffffffff1673ffffffffffffffffffffffffffffffffffffffff16815260200190815260200160002060008573ffffffffffffffffffffffffffffffffffffffff1673ffffffffffffffffffffffffffffffffffffffff16815260200190815260200160002083604051610d3f9190611990565b908152602001604051809103902060006101000a81548160ff0219169083151502179055505b505050565b6000808373ffffffffffffffffffffffffffffffffffffffff1673ffffffffffffffffffffffffffffffffffffffff16815260200190815260200160002081908060018154018082558091505060019003906000526020600020016000909190919091509080519060200190610de19291906113b5565b505050565b6060600260008473ffffffffffffffffffffffffffffffffffffffff1673ffffffffffffffffffffffffffffffffffffffff16815260200190815260200160002082604051610e359190611990565b9081526020016040518091039020805480602002602001604051908101604052809291908181526020018280548015610ec357602002820191906000526020600020905b8160009054906101000a900473ffffffffffffffffffffffffffffffffffffffff1673ffffffffffffffffffffffffffffffffffffffff1681526020019060010190808311610e79575b5050505050905092915050565b6000600160008573ffffffffffffffffffffffffffffffffffffffff1673ffffffffffffffffffffffffffffffffffffffff16815260200190815260200160002083604051610f1f9190611990565b908152602001604051809103902060008373ffffffffffffffffffffffffffffffffffffffff1673ffffffffffffffffffffffffffffffffffffffff16815260200190815260200160002060006101000a81548160ff02191690831515021790555060005b600360008573ffffffffffffffffffffffffffffffffffffffff1673ffffffffffffffffffffffffffffffffffffffff168152602001908152602001600020805490508110156111cb578173ffffffffffffffffffffffffffffffffffffffff16600360008673ffffffffffffffffffffffffffffffffffffffff1673ffffffffffffffffffffffffffffffffffffffff1681526020019081526020016000208281548110611036576110356119a7565b5b906000526020600020906003020160000160009054906101000a900473ffffffffffffffffffffffffffffffffffffffff1673ffffffffffffffffffffffffffffffffffffffff161480156111375750826040516020016110979190611990565b60405160208183030381529060405280519060200120600360008673ffffffffffffffffffffffffffffffffffffffff1673ffffffffffffffffffffffffffffffffffffffff16815260200190815260200160002082815481106110fe576110fd6119a7565b5b906000526020600020906003020160010160405160200161111f9190611acb565b60405160208183030381529060405280519060200120145b156111b8576000600360008673ffffffffffffffffffffffffffffffffffffffff1673ffffffffffffffffffffffffffffffffffffffff168152602001908152602001600020828154811061118f5761118e6119a7565b5b906000526020600020906003020160020160006101000a81548160ff0219169083151502179055505b80806111c390611b7e565b915050610f84565b50505050565b60606000808373ffffffffffffffffffffffffffffffffffffffff1673ffffffffffffffffffffffffffffffffffffffff168152602001908152602001600020805480602002602001604051908101604052809291908181526020016000905b828210156112dd57838290600052602060002001805461125090611a05565b80601f016020809104026020016040519081016040528092919081815260200182805461127c90611a05565b80156112c95780601f1061129e576101008083540402835291602001916112c9565b820191906000526020600020905b8154815290600101906020018083116112ac57829003601f168201915b505050505081526020019060010190611231565b505050509050919050565b8280546112f490611a05565b90600052602060002090601f0160209004810192826113165760008555611364565b82601f106113275780548555611364565b8280016001018555821561136457600052602060002091601f016020900482015b82811115611363578254825591600101919060010190611348565b5b509050611371919061143b565b5090565b50805461138190611a05565b6000825580601f1061139357506113b2565b601f0160209004906000526020600020908101906113b1919061143b565b5b50565b8280546113c190611a05565b90600052602060002090601f0160209004810192826113e3576000855561142a565b82601f106113fc57805160ff191683800117855561142a565b8280016001018555821561142a579182015b8281111561142957825182559160200191906001019061140e565b5b509050611437919061143b565b5090565b5b8082111561145457600081600090555060010161143c565b5090565b6000604051905090565b600080fd5b600080fd5b600073ffffffffffffffffffffffffffffffffffffffff82169050919050565b60006114978261146c565b9050919050565b6114a78161148c565b81146114b257600080fd5b50565b6000813590506114c48161149e565b92915050565b600080fd5b600080fd5b6000601f19601f8301169050919050565b7f4e487b7100000000000000000000000000000000000000000000000000000000600052604160045260246000fd5b61151d826114d4565b810181811067ffffffffffffffff8211171561153c5761153b6114e5565b5b80604052505050565b600061154f611458565b905061155b8282611514565b919050565b600067ffffffffffffffff82111561157b5761157a6114e5565b5b611584826114d4565b9050602081019050919050565b82818337600083830152505050565b60006115b36115ae84611560565b611545565b9050828152602081018484840111156115cf576115ce6114cf565b5b6115da848285611591565b509392505050565b600082601f8301126115f7576115f66114ca565b5b81356116078482602086016115a0565b91505092915050565b6000806040838503121561162757611626611462565b5b6000611635858286016114b5565b925050602083013567ffffffffffffffff81111561165657611655611467565b5b611662858286016115e2565b9150509250929050565b60006020828403121561168257611681611462565b5b6000611690848285016114b5565b91505092915050565b600081519050919050565b600082825260208201905092915050565b6000819050602082019050919050565b600081519050919050565b600082825260208201905092915050565b60005b838110156116ff5780820151818401526020810190506116e4565b8381111561170e576000848401525b50505050565b600061171f826116c5565b61172981856116d0565b93506117398185602086016116e1565b611742816114d4565b840191505092915050565b60006117598383611714565b905092915050565b6000602082019050919050565b600061177982611699565b61178381856116a4565b935083602082028501611795856116b5565b8060005b858110156117d157848403895281516117b2858261174d565b94506117bd83611761565b925060208a01995050600181019050611799565b50829750879550505050505092915050565b600060208201905081810360008301526117fd818461176e565b905092915050565b60008060006060848603121561181e5761181d611462565b5b600061182c868287016114b5565b935050602084013567ffffffffffffffff81111561184d5761184c611467565b5b611859868287016115e2565b925050604061186a868287016114b5565b9150509250925092565b600081519050919050565b600082825260208201905092915050565b6000819050602082019050919050565b6118a98161148c565b82525050565b60006118bb83836118a0565b60208301905092915050565b6000602082019050919050565b60006118df82611874565b6118e9818561187f565b93506118f483611890565b8060005b8381101561192557815161190c88826118af565b9750611917836118c7565b9250506001810190506118f8565b5085935050505092915050565b6000602082019050818103600083015261194c81846118d4565b905092915050565b600081905092915050565b600061196a826116c5565b6119748185611954565b93506119848185602086016116e1565b80840191505092915050565b600061199c828461195f565b915081905092915050565b7f4e487b7100000000000000000000000000000000000000000000000000000000600052603260045260246000fd5b7f4e487b7100000000000000000000000000000000000000000000000000000000600052602260045260246000fd5b60006002820490506001821680611a1d57607f821691505b60208210811415611a3157611a306119d6565b5b50919050565b60008190508160005260206000209050919050565b60008154611a5981611a05565b611a638186611954565b94506001821660008114611a7e5760018114611a8f57611ac2565b60ff19831686528186019350611ac2565b611a9885611a37565b60005b83811015611aba57815481890152600182019150602081019050611a9b565b838801955050505b50505092915050565b6000611ad78284611a4c565b915081905092915050565b6000819050919050565b7f4e487b7100000000000000000000000000000000000000000000000000000000600052601160045260246000fd5b6000611b2682611ae2565b9150611b3183611ae2565b925082821015611b4457611b43611aec565b5b828203905092915050565b7f4e487b7100000000000000000000000000000000000000000000000000000000600052603160045260246000fd5b6000611b8982611ae2565b91507fffffffffffffffffffffffffffffffffffffffffffffffffffffffffffffffff821415611bbc57611bbb611aec565b5b60018201905091905056fea26469706673582212209da3accf362832b39eda9fcc5efc65e0893232828dd1056af8ca11432b98329b64736f6c63430008090033",
  "linkReferences": {},
  "deployedLinkReferences": {}
}