{
  "_format": "hh-sol-artifact-1",
  "contractName": "UploadFile",
  "sourceName": "contracts/UploadFile.sol",
  "abi": [
    {
      "inputs": [
        {
          "internalType": "address",
          "name": "user",
          "type": "address"
        },
        {
          "internalType": "string",
          "name": "faceAuthID",
          "type": "string"
        }
      ],
      "name": "addFaceAuth",
      "outputs": [],
      "stateMutability": "nonpayable",
      "type": "function"
    },
    {
      "inputs": [
        {
          "internalType": "address",
          "name": "user",
          "type": "address"
        },
        {
          "internalType": "string",
          "name": "url",
          "type": "string"
        }
      ],
      "name": "addFile",
      "outputs": [],
      "stateMutability": "nonpayable",
      "type": "function"
    },
    {
      "inputs": [
        {
          "internalType": "address",
          "name": "owner",
          "type": "address"
        },
        {
          "internalType": "string",
          "name": "url",
          "type": "string"
        },
        {
          "internalType": "address",
          "name": "user",
          "type": "address"
        }
      ],
      "name": "allowAccess",
      "outputs": [],
      "stateMutability": "nonpayable",
      "type": "function"
    },
    {
      "inputs": [
        {
          "internalType": "address",
          "name": "owner",
          "type": "address"
        },
        {
          "internalType": "string",
          "name": "url",
          "type": "string"
        },
        {
          "internalType": "address",
          "name": "user",
          "type": "address"
        }
      ],
      "name": "disallowAccess",
      "outputs": [],
      "stateMutability": "nonpayable",
      "type": "function"
    },
    {
      "inputs": [
        {
          "internalType": "address",
          "name": "user",
          "type": "address"
        }
      ],
      "name": "displayFiles",
      "outputs": [
        {
          "internalType": "string[]",
          "name": "",
          "type": "string[]"
        }
      ],
      "stateMutability": "view",
      "type": "function"
    },
    {
      "inputs": [
        {
          "internalType": "address",
          "name": "user",
          "type": "address"
        },
        {
          "internalType": "string",
          "name": "urlToRemove",
          "type": "string"
        }
      ],
      "name": "removeFile",
      "outputs": [],
      "stateMutability": "nonpayable",
      "type": "function"
    },
    {
      "inputs": [
        {
          "internalType": "address",
          "name": "owner",
          "type": "address"
        },
        {
          "internalType": "string",
          "name": "url",
          "type": "string"
        }
      ],
      "name": "shareAccessList",
      "outputs": [
        {
          "internalType": "address[]",
          "name": "",
          "type": "address[]"
        }
      ],
      "stateMutability": "view",
      "type": "function"
    },
    {
      "inputs": [
        {
          "internalType": "address",
          "name": "caller",
          "type": "address"
        }
      ],
      "name": "sharedWithMe",
      "outputs": [
        {
          "internalType": "string[]",
          "name": "",
          "type": "string[]"
        }
      ],
      "stateMutability": "view",
      "type": "function"
    },
    {
      "inputs": [
        {
          "internalType": "address",
          "name": "user",
          "type": "address"
        },
        {
          "internalType": "string",
          "name": "faceAuthID",
          "type": "string"
        }
      ],
      "name": "verifyFaceAuth",
      "outputs": [
        {
          "internalType": "bool",
          "name": "",
          "type": "bool"
        }
      ],
      "stateMutability": "view",
      "type": "function"
    }
  ],
  "bytecode": "0x608060405234801561001057600080fd5b50611d8a806100206000396000f3fe608060405234801561001057600080fd5b50600436106100935760003560e01c806380bd5e531161006657806380bd5e53146101305780639ec407cb1461014c578063d83542b21461017c578063e9eeedc814610198578063fb97c1a8146101b457610093565b80630a9c1871146100985780635cda80d8146100b457806379ed85ef146100e45780637a885e4d14610114575b600080fd5b6100b260048036038101906100ad9190611767565b6101e4565b005b6100ce60048036038101906100c991906117c3565b61045d565b6040516100db919061193a565b60405180910390f35b6100fe60048036038101906100f99190611767565b610791565b60405161010b9190611977565b60405180910390f35b61012e60048036038101906101299190611992565b610827565b005b61014a60048036038101906101459190611767565b610e68565b005b61016660048036038101906101619190611767565b610ee5565b6040516101739190611abf565b60405180910390f35b61019660048036038101906101919190611767565b610fcf565b005b6101b260048036038101906101ad9190611992565b611026565b005b6101ce60048036038101906101c991906117c3565b611327565b6040516101db919061193a565b60405180910390f35b6000600160008473ffffffffffffffffffffffffffffffffffffffff1673ffffffffffffffffffffffffffffffffffffffff16815260200190815260200160002080549050905060005b8181101561045757826040516020016102479190611b1d565b60405160208183030381529060405280519060200120600160008673ffffffffffffffffffffffffffffffffffffffff1673ffffffffffffffffffffffffffffffffffffffff16815260200190815260200160002082815481106102ae576102ad611b34565b5b906000526020600020016040516020016102c89190611c58565b604051602081830303815290604052805190602001201415610444576001826102f19190611ca8565b81146103d257600160008573ffffffffffffffffffffffffffffffffffffffff1673ffffffffffffffffffffffffffffffffffffffff1681526020019081526020016000206001836103439190611ca8565b8154811061035457610353611b34565b5b90600052602060002001600160008673ffffffffffffffffffffffffffffffffffffffff1673ffffffffffffffffffffffffffffffffffffffff16815260200190815260200160002082815481106103af576103ae611b34565b5b906000526020600020019080546103c590611b92565b6103d092919061143f565b505b600160008573ffffffffffffffffffffffffffffffffffffffff1673ffffffffffffffffffffffffffffffffffffffff16815260200190815260200160002080548061042157610420611cdc565b5b60019003818190600052602060002001600061043d91906114cc565b9055610457565b808061044f90611d0b565b91505061022e565b50505050565b60606000805b600460008573ffffffffffffffffffffffffffffffffffffffff1673ffffffffffffffffffffffffffffffffffffffff1681526020019081526020016000208054905081101561054457600460008573ffffffffffffffffffffffffffffffffffffffff1673ffffffffffffffffffffffffffffffffffffffff16815260200190815260200160002081815481106104fe576104fd611b34565b5b906000526020600020906003020160020160009054906101000a900460ff161561053157818061052d90611d0b565b9250505b808061053c90611d0b565b915050610463565b5060008167ffffffffffffffff8111156105615761056061163c565b5b60405190808252806020026020018201604052801561059457816020015b606081526020019060019003908161057f5790505b5090506000805b600460008773ffffffffffffffffffffffffffffffffffffffff1673ffffffffffffffffffffffffffffffffffffffff1681526020019081526020016000208054905081101561078557600460008773ffffffffffffffffffffffffffffffffffffffff1673ffffffffffffffffffffffffffffffffffffffff168152602001908152602001600020818154811061063657610635611b34565b5b906000526020600020906003020160020160009054906101000a900460ff161561077257600460008773ffffffffffffffffffffffffffffffffffffffff1673ffffffffffffffffffffffffffffffffffffffff16815260200190815260200160002081815481106106ab576106aa611b34565b5b906000526020600020906003020160010180546106c790611b92565b80601f01602080910402602001604051908101604052809291908181526020018280546106f390611b92565b80156107405780601f1061071557610100808354040283529160200191610740565b820191906000526020600020905b81548152906001019060200180831161072357829003601f168201915b505050505083838151811061075857610757611b34565b5b6020026020010181905250818061076e90611d0b565b9250505b808061077d90611d0b565b91505061059b565b50819350505050919050565b6000816040516020016107a49190611b1d565b604051602081830303815290604052805190602001206000808573ffffffffffffffffffffffffffffffffffffffff1673ffffffffffffffffffffffffffffffffffffffff1681526020019081526020016000206040516020016108089190611c58565b6040516020818303038152906040528051906020012014905092915050565b6001600260008573ffffffffffffffffffffffffffffffffffffffff1673ffffffffffffffffffffffffffffffffffffffff168152602001908152602001600020836040516108769190611b1d565b908152602001604051809103902060008373ffffffffffffffffffffffffffffffffffffffff1673ffffffffffffffffffffffffffffffffffffffff16815260200190815260200160002060006101000a81548160ff021916908315150217905550600560008273ffffffffffffffffffffffffffffffffffffffff1673ffffffffffffffffffffffffffffffffffffffff16815260200190815260200160002060008473ffffffffffffffffffffffffffffffffffffffff1673ffffffffffffffffffffffffffffffffffffffff168152602001908152602001600020826040516109629190611b1d565b908152602001604051809103902060009054906101000a900460ff1615610bd35760005b600460008373ffffffffffffffffffffffffffffffffffffffff1673ffffffffffffffffffffffffffffffffffffffff16815260200190815260200160002080549050811015610bcd578173ffffffffffffffffffffffffffffffffffffffff16600460008473ffffffffffffffffffffffffffffffffffffffff1673ffffffffffffffffffffffffffffffffffffffff1681526020019081526020016000208281548110610a3857610a37611b34565b5b906000526020600020906003020160000160009054906101000a900473ffffffffffffffffffffffffffffffffffffffff1673ffffffffffffffffffffffffffffffffffffffff16148015610b39575082604051602001610a999190611b1d565b60405160208183030381529060405280519060200120600460008473ffffffffffffffffffffffffffffffffffffffff1673ffffffffffffffffffffffffffffffffffffffff1681526020019081526020016000208281548110610b0057610aff611b34565b5b9060005260206000209060030201600101604051602001610b219190611c58565b60405160208183030381529060405280519060200120145b15610bba576001600460008473ffffffffffffffffffffffffffffffffffffffff1673ffffffffffffffffffffffffffffffffffffffff1681526020019081526020016000208281548110610b9157610b90611b34565b5b906000526020600020906003020160020160006101000a81548160ff0219169083151502179055505b8080610bc590611d0b565b915050610986565b50610e63565b600360008473ffffffffffffffffffffffffffffffffffffffff1673ffffffffffffffffffffffffffffffffffffffff16815260200190815260200160002082604051610c209190611b1d565b9081526020016040518091039020819080600181540180825580915050600190039060005260206000200160009091909190916101000a81548173ffffffffffffffffffffffffffffffffffffffff021916908373ffffffffffffffffffffffffffffffffffffffff160217905550600460008273ffffffffffffffffffffffffffffffffffffffff1673ffffffffffffffffffffffffffffffffffffffff16815260200190815260200160002060405180606001604052808573ffffffffffffffffffffffffffffffffffffffff16815260200184815260200160011515815250908060018154018082558091505060019003906000526020600020906003020160009091909190915060008201518160000160006101000a81548173ffffffffffffffffffffffffffffffffffffffff021916908373ffffffffffffffffffffffffffffffffffffffff1602179055506020820151816001019080519060200190610d8e92919061150c565b5060408201518160020160006101000a81548160ff02191690831515021790555050506001600560008373ffffffffffffffffffffffffffffffffffffffff1673ffffffffffffffffffffffffffffffffffffffff16815260200190815260200160002060008573ffffffffffffffffffffffffffffffffffffffff1673ffffffffffffffffffffffffffffffffffffffff16815260200190815260200160002083604051610e3d9190611b1d565b908152602001604051809103902060006101000a81548160ff0219169083151502179055505b505050565b600160008373ffffffffffffffffffffffffffffffffffffffff1673ffffffffffffffffffffffffffffffffffffffff16815260200190815260200160002081908060018154018082558091505060019003906000526020600020016000909190919091509080519060200190610ee092919061150c565b505050565b6060600360008473ffffffffffffffffffffffffffffffffffffffff1673ffffffffffffffffffffffffffffffffffffffff16815260200190815260200160002082604051610f349190611b1d565b9081526020016040518091039020805480602002602001604051908101604052809291908181526020018280548015610fc257602002820191906000526020600020905b8160009054906101000a900473ffffffffffffffffffffffffffffffffffffffff1673ffffffffffffffffffffffffffffffffffffffff1681526020019060010190808311610f78575b5050505050905092915050565b806000808473ffffffffffffffffffffffffffffffffffffffff1673ffffffffffffffffffffffffffffffffffffffff168152602001908152602001600020908051906020019061102192919061150c565b505050565b6000600260008573ffffffffffffffffffffffffffffffffffffffff1673ffffffffffffffffffffffffffffffffffffffff168152602001908152602001600020836040516110759190611b1d565b908152602001604051809103902060008373ffffffffffffffffffffffffffffffffffffffff1673ffffffffffffffffffffffffffffffffffffffff16815260200190815260200160002060006101000a81548160ff02191690831515021790555060005b600460008573ffffffffffffffffffffffffffffffffffffffff1673ffffffffffffffffffffffffffffffffffffffff16815260200190815260200160002080549050811015611321578173ffffffffffffffffffffffffffffffffffffffff16600460008673ffffffffffffffffffffffffffffffffffffffff1673ffffffffffffffffffffffffffffffffffffffff168152602001908152602001600020828154811061118c5761118b611b34565b5b906000526020600020906003020160000160009054906101000a900473ffffffffffffffffffffffffffffffffffffffff1673ffffffffffffffffffffffffffffffffffffffff1614801561128d5750826040516020016111ed9190611b1d565b60405160208183030381529060405280519060200120600460008673ffffffffffffffffffffffffffffffffffffffff1673ffffffffffffffffffffffffffffffffffffffff168152602001908152602001600020828154811061125457611253611b34565b5b90600052602060002090600302016001016040516020016112759190611c58565b60405160208183030381529060405280519060200120145b1561130e576000600460008673ffffffffffffffffffffffffffffffffffffffff1673ffffffffffffffffffffffffffffffffffffffff16815260200190815260200160002082815481106112e5576112e4611b34565b5b906000526020600020906003020160020160006101000a81548160ff0219169083151502179055505b808061131990611d0b565b9150506110da565b50505050565b6060600160008373ffffffffffffffffffffffffffffffffffffffff1673ffffffffffffffffffffffffffffffffffffffff168152602001908152602001600020805480602002602001604051908101604052809291908181526020016000905b828210156114345783829060005260206000200180546113a790611b92565b80601f01602080910402602001604051908101604052809291908181526020018280546113d390611b92565b80156114205780601f106113f557610100808354040283529160200191611420565b820191906000526020600020905b81548152906001019060200180831161140357829003601f168201915b505050505081526020019060010190611388565b505050509050919050565b82805461144b90611b92565b90600052602060002090601f01602090048101928261146d57600085556114bb565b82601f1061147e57805485556114bb565b828001600101855582156114bb57600052602060002091601f016020900482015b828111156114ba57825482559160010191906001019061149f565b5b5090506114c89190611592565b5090565b5080546114d890611b92565b6000825580601f106114ea5750611509565b601f0160209004906000526020600020908101906115089190611592565b5b50565b82805461151890611b92565b90600052602060002090601f01602090048101928261153a5760008555611581565b82601f1061155357805160ff1916838001178555611581565b82800160010185558215611581579182015b82811115611580578251825591602001919060010190611565565b5b50905061158e9190611592565b5090565b5b808211156115ab576000816000905550600101611593565b5090565b6000604051905090565b600080fd5b600080fd5b600073ffffffffffffffffffffffffffffffffffffffff82169050919050565b60006115ee826115c3565b9050919050565b6115fe816115e3565b811461160957600080fd5b50565b60008135905061161b816115f5565b92915050565b600080fd5b600080fd5b6000601f19601f8301169050919050565b7f4e487b7100000000000000000000000000000000000000000000000000000000600052604160045260246000fd5b6116748261162b565b810181811067ffffffffffffffff821117156116935761169261163c565b5b80604052505050565b60006116a66115af565b90506116b2828261166b565b919050565b600067ffffffffffffffff8211156116d2576116d161163c565b5b6116db8261162b565b9050602081019050919050565b82818337600083830152505050565b600061170a611705846116b7565b61169c565b90508281526020810184848401111561172657611725611626565b5b6117318482856116e8565b509392505050565b600082601f83011261174e5761174d611621565b5b813561175e8482602086016116f7565b91505092915050565b6000806040838503121561177e5761177d6115b9565b5b600061178c8582860161160c565b925050602083013567ffffffffffffffff8111156117ad576117ac6115be565b5b6117b985828601611739565b9150509250929050565b6000602082840312156117d9576117d86115b9565b5b60006117e78482850161160c565b91505092915050565b600081519050919050565b600082825260208201905092915050565b6000819050602082019050919050565b600081519050919050565b600082825260208201905092915050565b60005b8381101561185657808201518184015260208101905061183b565b83811115611865576000848401525b50505050565b60006118768261181c565b6118808185611827565b9350611890818560208601611838565b6118998161162b565b840191505092915050565b60006118b0838361186b565b905092915050565b6000602082019050919050565b60006118d0826117f0565b6118da81856117fb565b9350836020820285016118ec8561180c565b8060005b85811015611928578484038952815161190985826118a4565b9450611914836118b8565b925060208a019950506001810190506118f0565b50829750879550505050505092915050565b6000602082019050818103600083015261195481846118c5565b905092915050565b60008115159050919050565b6119718161195c565b82525050565b600060208201905061198c6000830184611968565b92915050565b6000806000606084860312156119ab576119aa6115b9565b5b60006119b98682870161160c565b935050602084013567ffffffffffffffff8111156119da576119d96115be565b5b6119e686828701611739565b92505060406119f78682870161160c565b9150509250925092565b600081519050919050565b600082825260208201905092915050565b6000819050602082019050919050565b611a36816115e3565b82525050565b6000611a488383611a2d565b60208301905092915050565b6000602082019050919050565b6000611a6c82611a01565b611a768185611a0c565b9350611a8183611a1d565b8060005b83811015611ab2578151611a998882611a3c565b9750611aa483611a54565b925050600181019050611a85565b5085935050505092915050565b60006020820190508181036000830152611ad98184611a61565b905092915050565b600081905092915050565b6000611af78261181c565b611b018185611ae1565b9350611b11818560208601611838565b80840191505092915050565b6000611b298284611aec565b915081905092915050565b7f4e487b7100000000000000000000000000000000000000000000000000000000600052603260045260246000fd5b7f4e487b7100000000000000000000000000000000000000000000000000000000600052602260045260246000fd5b60006002820490506001821680611baa57607f821691505b60208210811415611bbe57611bbd611b63565b5b50919050565b60008190508160005260206000209050919050565b60008154611be681611b92565b611bf08186611ae1565b94506001821660008114611c0b5760018114611c1c57611c4f565b60ff19831686528186019350611c4f565b611c2585611bc4565b60005b83811015611c4757815481890152600182019150602081019050611c28565b838801955050505b50505092915050565b6000611c648284611bd9565b915081905092915050565b6000819050919050565b7f4e487b7100000000000000000000000000000000000000000000000000000000600052601160045260246000fd5b6000611cb382611c6f565b9150611cbe83611c6f565b925082821015611cd157611cd0611c79565b5b828203905092915050565b7f4e487b7100000000000000000000000000000000000000000000000000000000600052603160045260246000fd5b6000611d1682611c6f565b91507fffffffffffffffffffffffffffffffffffffffffffffffffffffffffffffffff821415611d4957611d48611c79565b5b60018201905091905056fea26469706673582212201221f1e0a664a0ae2683916a7b8d2ed614f3372e28749a57b3dbb8c40cebdae064736f6c63430008090033",
  "linkReferences": {},
  "deployedLinkReferences": {}
}